:020000040800F2
:1000000098A3002039030008FD830008E57000086C
:100010009183000835160008B1DA000800000000DE
:10002000000000000000000000000000790200084D
:100030003B22000800000000D50200084DA4000883
:100040005303000853030008530300085303000838
:100050005303000853030008530300085303000828
:100060005303000853030008530300085303000818
:10007000E1200008F12000085303000853030008A2
:10008000012100085303000853030008530300082C
:1000900053030008530300085303000853030008E8
:1000A000530300083DA5000853030008530300084C
:1000B0004DA500085DA500086DA5000853030008C4
:1000C0005303000853030008530300083D9E000833
:1000D000530300086DB1000881B1000895B1000814
:1000E0005303000853030008530300085303000898
:1000F0005303000853030008530300085303000888
:100100005303000853030008530300085303000877
:100110004DAA0008530300087DA5000899A5000812
:10012000530300085303000811210008212100088F
:100130005303000800000000000000005303000803
:100140005303000853030008530300085303000837
:100150005303000853030008530300085303000827
:100160005303000853030008530300085303000817
:100170005303000801840008000000000000000094
:10018000530300085303000800F002F800F065F87C
:100190000AA090E8000C82448344AAF10107DA45E2
:1001A00001D100F05AF8AFF2090EBAE80F0013F0CF
:1001B000010F18BFFB1A43F0010318478417010011
:1001C000A41701000A444FF0000C10F8013B13F093
:1001D000070408BF10F8014B1D1108BF10F8015BA0
:1001E000641E05D010F8016B641E01F8016BF9D193
:1001F00013F0080F1EBF10F8014BAD1C0C1B09D1EA
:100200006D1E58BF01F801CBFAD505E014F8016B5B
:1002100001F8016B6D1EF9D59142D6D370470000ED
:100220000023002400250026103A28BF78C1FBD8FF
:10023000520728BF30C148BF0B607047642900F0E7
:100240008981002070471FB510F0CBFA9DE80300AC
:1002500000F032FB1FBD10B510BD00F027FC1146A9
:10026000FFF7F1FF0EF088FA00F045FC03B4FFF74A
:10027000F2FF03BC00F076FC2C4B19680868B0E86C
:10028000F04F80F30988BFF36F8F4FF0000080F3C9
:10029000118870470000000008480068006880F37B
:1002A00008884FF0000080F3148862B661B6BFF38F
:1002B0004F8FBFF36F8F00DF00BF00BF08ED00E07E
:1002C000DFF80C00016841F470010160704700BF65
:1002D00088ED00E0EFF30980BFF36F8F134B1A68CE
:1002E0001EF0100F08BF20ED108A20E9F04F1060BB
:1002F00009B44FF0500080F31188BFF34F8FBFF364
:100300006F8F0FF077FA4FF0000080F3118809BC6F
:1003100019680868B0E8F04F1EF0100F08BFB0EC85
:10032000108A80F30988BFF36F8F70473000002078
:10033000EFF30580704700000948804709480047EF
:10034000FEE7FEE7FEE7FEE7FEE7FEE7FEE7FEE785
:10035000FEE7FEE704480549054A064B70470000E2
:1003600029A50008890100089893002098A300207F
:10037000989B0020989B002070B5064600F080FAFC
:10038000056806F10B0020F00704B4429CBF002072
:1003900070BD2B466A68BAB11068A04210D304F150
:1003A000080188423CBF5068586007D35168101953
:1003B00041601168091B016058601460101D70BD18
:1003C00013465268002AE7D12146284600F060FA19
:1003D0000028DED170BD53EA020C00F069802DE9DF
:1003E000F04B4FF00006002B1FBFB3FA83F503FA62
:1003F00005F424FA05F65E4012BF1643B2FA82F500
:1004000002FA05F4C5F120051EBF22FA05FC44EAF4
:100410000C04203556EA044C4FEA144418BF641CFF
:100420004FF000084FF00009904271EB030C39D3F4
:10043000002919BFB1FA81F701FA07F6B0FA80F77F
:1004400000FA07F6C7F120071EBF20FA07FC46EAAC
:100450000C062037B6FBF4FCA7EB0507103F07F0AE
:100460001F0BCBF120060CFA0BFB2CFA06F644BF4F
:10047000B3460026202FA4BF5E464FF0000B5BEA78
:10048000060C08BF4FF0010B19EB0B09ABFB027C0C
:1004900048EB0608C01B06FB02CC0BFB03CC71EB40
:1004A0000C01C1E70B46024641464846BDE8F08BC9
:1004B00013B54FF000004FF00001AFF30080BDE82E
:1004C0001C4070470FB41CB5074B06AA7B44694615
:1004D0000090059800F0ABFA0020694600F0BAFAE7
:1004E0001CBC5DF814FB0000850500002DE9F041FF
:1004F0000E460446002020622046E168884730B35B
:10050000252805D0D4E901219047206A401CF2E754
:10051000E168204600278847050018D0A5F1410072
:10052000192802D820354FF4006732462946204664
:100530002760FFF783FE40B1012804D0F61D26F0A6
:1005400007060836D8E7361DD6E72846DAE7206AD8
:10055000BDE8F0812DE9F0410646002410687529B8
:10056000314616A510D0AFF30080002802DA4042D1
:1005700013A507E031688A0701D512A502E04907F3
:1005800004D511A5012401E0AFF3008000210A2267
:1005900006F1240709E0B0FBF2FCB0FBF2F302FB2A
:1005A0001C00303078541846491C0028F3D12346EB
:1005B0002A463046BDE8F04100F0DBB900000000FB
:1005C0002D0000002B0000002000000030B5054683
:1005D0000B462A4613F8014B12F8010B08B1A04252
:1005E000F8D01CB1002802D06D1CF1E7284630BDC0
:1005F00040EA0103024630B59B0710D14FF00134A9
:1006000000E008C208C91D1B9D4315EAC41FF8D0AD
:1006100013F0FF0102F8011B0DD01B0AF8E711F8D7
:10062000013B002B02F8013B05D011F8013B002BE8
:1006300002F8013BF3D130BD10B5431C02E010F8C5
:10064000011B71B18107FAD14FF0013202C88C1A37
:100650008C4314EAC211F9D0C01A0A0603D0C01E96
:1006600010BDC01A10BD0A0401D0801E10BD0902C1
:10067000FCD0401E10BD032A40F2308010F0030C65
:1006800000F0158011F8013BBCF1020F624498BFE5
:1006900011F801CB00F8013B38BF11F8013BA2F182
:1006A000040298BF00F801CB38BF00F8013B11F0FD
:1006B000030300F02580083AC0F0088051F8043B9D
:1006C000083A51F804CBA0E80810F5E7121D5CBF0A
:1006D00051F8043B40F8043BAFF30080D20724BF3D
:1006E00011F8013B11F801CB48BF11F8012B24BFD1
:1006F00000F8013B00F801CB48BF00F8012B704720
:1007000010B5203AC0F00B80B1E81850203AA0E8AC
:100710001850B1E81850A0E81850BFF4F5AF5FEAE0
:10072000027C24BFB1E81850A0E8185044BF18C993
:1007300018C0BDE810405FEA827C24BF51F8043B3A
:1007400040F8043B08BF7047D20728BF31F8023B8E
:1007500048BF11F8012B28BF20F8023B48BF00F822
:10076000012B70474FF000020429C0F0128010F0F6
:10077000030C00F01B80CCF1040CBCF1020F18BF7D
:1007800000F8012BA8BF20F8022BA1EB0C0100F010
:100790000DB85FEAC17C24BF00F8012B00F8012BE3
:1007A00048BF00F8012B70474FF0000200B5134618
:1007B00094469646203922BFA0E80C50A0E80C5081
:1007C000B1F12001BFF4F7AF090728BFA0E80C5032
:1007D00048BF0CC05DF804EB890028BF40F8042B2B
:1007E00008BF704748BF20F8022B11F0804F18BF98
:1007F00000F8012B704700004FF0013C50F8042B2B
:1008000051F8043B9A4221D1A2EB0C03934313EA23
:10081000CC1317D150F8042B51F8043B9A4215D150
:10082000A2EB0C03934313EACC130BD150F8042B27
:1008300051F8043B9A4209D1A2EB0C03934313EA0B
:10084000CC13DBD04FF00000704700BFD01A01BAC4
:10085000B1FA81F101F0180122FA01F0CB40C1F1A7
:100860002001DBB2C0B2C01A2CFA01F3D11A9143B5
:1008700011EAC311E6D17047704770477047000016
:10088000004870474093002070477047704770479A
:1008900038B504460A4600206946AFF300800028B8
:1008A00008BF38BD02460099204600F0DDF801205F
:1008B00038BD012000F0F2B8F8B5AFF3008005466E
:1008C00000200C46102000BF0646A819A0420DD9F2
:1008D000324669460020AFF30080070008BF00F0F1
:1008E000DDF80098A04218BF0546C419FFF7C8FFFD
:1008F00005600746F01D20F007004619284600F065
:100900000AF8B44208BFF8BDA21B31463868BDE8FA
:10091000F84000F0A9B800210160C0E9011070475B
:100920001020704770B50446051FFFF7A9FF006847
:10093000002C14BF446870BD002C18BFAC423CBFF3
:1009400020466468F8D301680A18AA4218BF4560B7
:1009500003D12A6805461144016028684119A14263
:100960001CBF6C6070BD61686960216808442860C4
:1009700070BD2DE9F0470D4699469246044600F1B8
:1009800024080168880604D5E06921F0100121607F
:1009900000E00120A84201DD471B00E00027A1691B
:1009A0007A1902EB0900081AA0612078C00602D467
:1009B0002046AFF30080002608E0D4E901211AF8B0
:1009C00006009047206A401C761C20624E45F4DBEE
:1009D0002078C0060AD52046AFF3008006E0D4E9AF
:1009E000012130209047206A401C2062381EA7F168
:1009F0000107F4DC07E0D4E9012118F8050090476D
:100A0000206A401C2062281EA5F10105F3DC204667
:100A1000AFF300802078000602D50220BDE8F08701
:100A20000120FBE701694A1C02610878704700B5A4
:100A30008FB0CDE901310021059105497944CDE917
:100A4000031011466846FFF751FD0FB000BD0000CE
:100A5000E5FFFFFF0A6802F8010B0A60704700001B
:100A60000048704738930020034640688C460028B1
:100A700018BF88423CBF03464068F8D31868184442
:100A8000884207D00CF1030020F00700001D411A36
:100A9000521A0146081D0A60FFF744BF10B500F066
:100AA00039F8BDE8104000F02FB870477546FFF7E1
:100AB000D7FFAE4605006946534620F0070085463D
:100AC00018B020B5FFF746FCBDE820404FF0000607
:100AD0004FF000074FF000084FF0000B21F0070126
:100AE000AC46ACE8C009ACE8C009ACE8C009ACE869
:100AF000C0098D46704710B50446AFF3008020460C
:100B0000BDE81040FFF7B2BB002801D000F02AB8C2
:100B10007047000010B5012805D0002103A000F0A7
:100B200027F8012010BD09A1F8E7000053494752FA
:100B3000544D454D3A204F7574206F6620686561AD
:100B400070206D656D6F7279000000003A20486575
:100B50006170206D656D6F727920636F7272757050
:100B60007465640001491820ABBEFEE72600020050
:100B700070B505460C460A2000E06D1C00F011F827
:100B800035B128780028F8D102E0641C00F009F89B
:100B900014B120780028F8D1BDE870400A20AFF3E6
:100BA000008008B569468DF800000320ABBE08BD83
:100BB00030B52DED068B83B00446207801284BD14B
:100BC000FA4800780A2847DB0021F94A1160F94AFF
:100BD000116000200FE0F849095CF54A12681144E1
:100BE000F34A1160F549095CF24A12681144F14A6E
:100BF0001160411CC8B20A28EDDBED4909680A22E0
:100C0000B1FBF2F1EA4A1160EA4909680A22B1FB34
:100C1000F2F1E84A1160E649096809B1012100E0F2
:100C20000021E74A5268E24B1B689A4201D901222F
:100C300000E000221140E34AD278E14B9B689A42DF
:100C400001D9012200E00022114021B1DE490988CA
:100C5000491CDD4A118000BFDC4800680078C0F301
:100C60004300DB490880D94800680078C0F343009E
:100C7000002862D0D54800680078C0F3400078B3FF
:100C8000D04890ED020A10EE101A08460FF038FD19
:100C900041EC190B9FEDCF0B53EC102B0FF010FC18
:100CA00001D2012500E00025C64890ED020A10EEB1
:100CB000101A08460FF024FD41EC190B9FEDC70BED
:100CC00053EC102B0FF0C2FA01D2012000E00020FB
:100CD000054035B1C348007840F00200C1490870B2
:100CE00005E0C048007800F0FD00BE490870B74834
:100CF00000680078C0F3800080B1BB48007801280C
:100D000006DBB848007840F00400B649087005E0FA
:100D1000B448007800F0FB00B2490870AB480068A6
:100D20000078C0F34300AF490978B0EB610F04D1FC
:100D3000AE480088401CAD490880AD4800680FF0FF
:100D4000DFFC41EC1A0B9FEDAB0B53EC102B0FF0BB
:100D5000EDFB41EC190B0FF027F808EE900AA448C0
:100D600000680FF0CDFC41EC1A0B9FEDA20B53EC89
:100D7000102B0FF04BF841EC190B0FF015F808EEA3
:100D8000100A207803286ED18E4890ED030AB4EE45
:100D9000E80AF1EE10FA01DD012000E000208949A7
:100DA00091ED030AB4EEC80AF1EE10FA01D2012166
:100DB00000E000210840834991ED040AB4EEE80AFE
:100DC000F1EE10FA01DD012100E0002108407D492B
:100DD00091ED040AB4EEC80AF1EE10FA01D2012135
:100DE00000E000210840774991ED050AB4EEE80AD9
:100DF000F1EE10FA01DD012100E000210840714907
:100E000091ED050AB4EEC80AF1EE10FA01D2012103
:100E100000E0002108406B4991ED060AB4EEE80AB3
:100E2000F1EE10FA01DD012100E0002108406549E2
:100E300091ED060AB4EEC80AF1EE10FA01D20121D2
:100E400000E00021084000280DD0604800680088BC
:100E5000C0F34310042807D006280BD008283FD041
:100E60000E2806D1CCE092E164480088401C63491A
:100E700008808BE1534890ED070AB4EEE80AF1EEE2
:100E800010FA01DD012000E000204E4991ED070A33
:100E9000B4EEC80AF1EE10FA01D2012100E00021FF
:100EA0000840484991ED080AB4EEE80AF1EE10FA5C
:100EB00001DD012100E000210840424991ED080ACE
:100EC000B4EEC80AF1EE10FA01D2012100E00021CF
:100ED000084020B149480088401C4849088055E135
:100EE000384890ED070AB4EEE80AF1EE10FA01DD99
:100EF000012000E00020334991ED070AB4EEC80A52
:100F0000F1EE10FA01D2012100E0002108402D4944
:100F100091ED080AB4EEE80AF1EE10FA01DD0121C4
:100F200000E000210840274991ED080AB4EEC80A04
:100F3000F1EE10FA01D2012100E000210840214920
:100F400091ED090AB4EEE80AF1EE10FA01DD012193
:100F500000E0002108401B4991ED090AB4EEC80ADF
:100F6000F1EE10FA01D2012100E0002108401549FC
:100F700091ED0A0AB4EEE80AF1EE10FA01DD012162
:100F800000E0002108400F4991ED0A0AB4EEC80ABA
:100F9000F1EE10FA01D2012100E00021084020B159
:100FA00016480088401C15490880EFE030030020F7
:100FB0007C03002080030020149300201E93002057
:100FC00028930020D89200208403002044030020AE
:100FD0008E0300203333333333331140CDCCCCCCAC
:100FE000CCCC144088030020C401002086030020DC
:100FF000FC0100209A9999999999C93F8A03002088
:10100000F04890ED070AB4EEE80AF1EE10FA01DDBF
:10101000012000E00020EB4991ED070AB4EEC80A78
:10102000F1EE10FA01D2012100E000210840E5496B
:1010300091ED080AB4EEE80AF1EE10FA01DD0121A3
:1010400000E000210840DF4991ED080AB4EEC80A2B
:10105000F1EE10FA01D2012100E000210840D94947
:1010600091ED090AB4EEE80AF1EE10FA01DD012172
:1010700000E000210840D34991ED090AB4EEC80A06
:10108000F1EE10FA01D2012100E000210840CD4923
:1010900091ED0A0AB4EEE80AF1EE10FA01DD012141
:1010A00000E000210840C74991ED0A0AB4EEC80AE1
:1010B000F1EE10FA01D2012100E000210840C149FF
:1010C00091ED0B0AB4EEE80AF1EE10FA01DD012110
:1010D00000E000210840BB4991ED0B0AB4EEC80ABC
:1010E000F1EE10FA01D2012100E000210840B549DB
:1010F00091ED0C0AB4EEE80AF1EE10FA01DD0121DF
:1011000000E000210840AF4991ED0C0AB4EEC80A96
:10111000F1EE10FA01D2012100E000210840A949B6
:1011200091ED0D0AB4EEE80AF1EE10FA01DD0121AD
:1011300000E000210840A34991ED0D0AB4EEC80A71
:10114000F1EE10FA01D2012100E0002108409D4992
:1011500091ED0E0AB4EEE80AF1EE10FA01DD01217C
:1011600000E000210840974991ED0E0AB4EEC80A4C
:10117000F1EE10FA01D2012100E00021084020B177
:1011800091480088401C9049088000BF00BF8F48EC
:101190000088401C8D490880204600F02BF92078FB
:1011A00005280FD2DFE800F0030F5BB6FE00002039
:1011B00086490880864908808649087086490880E3
:1011C00081490880F9E008F0A7FD814800880128DE
:1011D00001DB012000E000207C490988642901DD51
:1011E000012100E000210840C8B100207B490870BF
:1011F0007BA1102248F23043CDE9002102904FF448
:10120000FC624B21322006F073FCC8200DF073FB0A
:101210002078401C207000206C4908801EE06B483C
:101220000088B0F5FA7F19DD01206C4908700020B4
:101230006DA1102248F23043CDE9002102904FF415
:1012400078424B21322006F053FCC8200DF053FBAE
:101250002078401C207000205C490880ADE0644884
:1012600000680078C0F34300F0B308F0BDFE5A48B0
:101270000088322801DD012000E000205349098860
:10128000322901DD012100E000210840C8B1002021
:101290005249487052A1102248F23043CDE9002152
:1012A00002904FF4FC624B21322006F021FCC82052
:1012B0000DF021FB2078401C20700020434908805D
:1012C00027E042480088B0F5967F22DD012043499F
:1012D0004870002044A1102248F23043CDE900219B
:1012E00002904FF4784200E00DE04B21322006F0EE
:1012F000FFFBC8200DF0FFFA2078401C2070002072
:101300003249088005E02078401C207000202F49D9
:10131000088052E000F00AFB2B4800881E2801DDFF
:10132000012000E0002029490988322901DD01213E
:1013300000E000210840C8B100202849887028A199
:10134000102248F23043CDE9002102904FF4FC62B4
:101350004B21322006F0CCFBC8200DF0CCFA2078CF
:10136000401C207000201949088020E017480088A0
:10137000B0F5967F1BDD01201849887000201AA166
:10138000102248F23043CDE9002102904FF4784218
:101390004B21322006F0ACFBC8200DF0ACFA2078CF
:1013A000401C00E004E0207000200849088004E0B0
:1013B00009F060FA0020207000BF00BF03B0BDEC50
:1013C000068B30BDD89200208A0300208C030020B9
:1013D0008403002088030020860300202C030020C3
:1013E0002D504153532D00002D4641494C2D0000F6
:1013F000440300201CB504462078544909788842EB
:1014000075D02078052804D2DFE800F0030430729C
:10141000910096E048F23040782396221621009001
:101420000A2005F0C9FF48F230404FF478411023FC
:1014300047A2CDE900101921142006F055F848F212
:1014400030400021102346A2CDE9001028211420AD
:1014500006F04AF848F230400021102342A2CDE9BC
:1014600000103721142006F03FF86AE048F23040BF
:1014700078239622162100900A2005F09DFF48F25D
:1014800030404FF47841102338A2CDE900101921E3
:10149000142006F029F8394800680078C0F34000AD
:1014A00050B148F230400021102335A2CDE90010A0
:1014B0003721142006F018F8304800680078C0F38F
:1014C000800050B148F23040002110232EA2CDE917
:1014D00000102821142006F007F84FF4FC60802348
:1014E00037227E2100900B2005F066FF29E029E0DD
:1014F00048F2304078239622162100900A2005F009
:101500005BFF48F230404FF47841102320A2CDE930
:1015100000101921142005F0E7FF4FF4FC60802330
:1015200066227E2100900B2005F046FF09E04FF473
:10153000FC60802395227E2100900B2005F03CFF6B
:1015400000BF00BF2078014908701CBD980300202F
:1015500052737369204C712054657374696E67000F
:10156000525353493A0000004C513A0053656E7390
:101570006F722074657374696E6700004403002005
:10158000566261743A000000414C543A0000000079
:101590004368616E6E6C655F74657374696E670035
:1015A00005F0F0FF0CF080FB4FF4967001F028FB83
:1015B00000BF05F0A7FE06F0EDFE0A200DF09BF936
:1015C000F7E700BF01F056F80CF0FEF901F050F813
:1015D0000CF0C6FE14200DF08EF9F3E700BF1148A1
:1015E000007860B14FF496700F4908809FED0F0AA4
:1015F0000F4880ED000A00200A4908700BE040F215
:10160000FF7009490880B2EE040A094880ED000A1B
:1016100001200449087001F07DF84FF416700DF0B8
:101620006AF9DCE71D000020FA0100203333A340F3
:10163000FC01002000BFFEE70346042B15D007DCA9
:101640007BB1012B0ED0022B0DD0032B12D10BE05E
:10165000202B0BD0212B0AD0222B09D0232B09D1F0
:1016600007E008E007E006E005E004E003E002E050
:1016700001E000E000BF00BF00207047002070477D
:1016800010B50022044905480AF029F80449034826
:101690000AF016F8002010BDF07C00201470002025
:1016A000F074002070B504460D46214603480AF048
:1016B00007F8024809F0D0FF002070BD1470002028
:1016C00010B503460C460021084610BD10B58648EB
:1016D0000078012806D0022845D0032874D00428B9
:1016E0003BD1C3E081480078C82837D17F48407893
:1016F000801C0E2832D17D48407803282EDB7B48A1
:10170000407840282ADC79484078794908700846B2
:101710000078401C7549085C764908707448007868
:10172000401EC1B27148801C00F0EEF8724908708A
:10173000084600786F490978884204D16C480078DF
:1017400007F060F90AE06C4800786A490978884235
:1017500004D040216548FFF705F8C3E04021634805
:10176000FFF700F8BEE065480078C82838D1634824
:101770004078801C0E2833D16048407803282FDB46
:101780005E48407840282BDC5C4840785849087017
:1017900008460078401C5949085C5649087054486E
:1017A0000078401EC1B25548801C00F0ADF8524987
:1017B0000870084600784F490978884205D14C489E
:1017C000007807F01FF90BE00FE04B48007849491B
:1017D0000978884204D040214848FEF7C3FF81E0E1
:1017E00040214648FEF7BEFF7CE045480078C82807
:1017F00037D143484078801C0E2832D14048407889
:1018000003282EDB3E48407840282ADC3C484078BC
:101810003749087008460078401C3949085C35494A
:10182000087033480078401EC1B23548801C00F073
:101830006BF831490870084600782E4909788842CB
:1018400004D12B48007807F0DDF80AE02A48007838
:1018500028490978884204D040212948FEF782FFB0
:1018600040E040212648FEF77DFF3BE02548007818
:10187000EA2832D12348407803282EDB21484078DB
:1018800040282ADC1F48407819490870084600782B
:10189000401C1C49085C1749087015480078401E18
:1018A000C1B21848801C00F02FF813490870084690
:1018B000007810490978884204D10D48007807F073
:1018C000A1F80AE00C4800780A490978884204D057
:1018D00040210C48FEF746FF04E040210948FEF78E
:1018E00041FF00BF00BF10BD940100209A8D002071
:1018F000EC010020ED010020EE010020DA8D002037
:101900001A8E00205A8E002010B50246002004E0F6
:1019100012F8013B4340044CE05C0B1EA1F10104B2
:10192000E1B2F5D110BD00009A8C00203EB5FE4812
:1019300000680088C0F34310042806D006287FD032
:1019400008287CD00E2878D12AE2F84890ED030AC6
:10195000DFEDF70A20EE200ABCEEC00A10EE100AF6
:1019600084B210200321F14A92ED030ABCEEC00AB2
:101970008DED000A48F230432246CDE901102821BE
:10198000322006F064F8E94890ED040ADFEDE90A38
:1019900020EE200ABCEEC00A10EE100A84B210211C
:1019A0000322E24890ED040ABCEEC00A8DED000A65
:1019B00048F23043CDE9012122462821782006F063
:1019C00046F8DA4890ED050ADFEDDA0A20EE200A43
:1019D000BCEEC00A10EE100A84B210210322D348D4
:1019E00090ED050ABCEEC00A8DED000A48F23043C6
:1019F000CDE9012122463721322006F028F8CB48D4
:101A000090ED060ADFEDCB0A20EE200ABCEEC00AFC
:101A100010EE100A84B210210322C44890ED060A89
:101A2000BCEEC00A8DED000A48F23043CDE9012139
:101A300022463721782006F00AF81AE300E0B4E0E5
:101A4000BA4890ED030ADFEDBA0A20EE200ABCEE98
:101A5000C00A10EE100A84B210200321B34A92ED9E
:101A6000030ABCEEC00A8DED000A48F2304322465C
:101A7000CDE901102821322005F0E9FFAB4890EDB7
:101A8000040ADFEDAC0A20EE200ABCEEC00A10EE1C
:101A9000100A84B210210322A44890ED040ABCEE7F
:101AA000C00A8DED000A48F23043CDE901212246FB
:101AB0002821782005F0CBFF9C4890ED050ADFED4A
:101AC0009D0A20EE200ABCEEC00A10EE100A84B275
:101AD00010210322954890ED050ABCEEC00A8DED59
:101AE000000A48F23043CDE9012122463721322055
:101AF00005F0ADFF8D4890ED060ADFED8E0A20EE71
:101B0000200ABCEEC00A10EE100A84B21021032293
:101B1000864890ED060ABCEEC00A8DED000A48F238
:101B20003043CDE9012122463721782005F08FFF8F
:101B30007E4890ED070ADFED7F0A20EE200ABCEE1A
:101B4000C00A10EE100A84B210210322774890EDEB
:101B5000070ABCEEC00A8DED000A48F23043CDE919
:101B6000012122464621322005F071FF6F4890ED99
:101B7000080ADFED700A20EE200ABCEEC00A10EE63
:101B8000100A84B210210322684890ED080ABCEEC6
:101B9000C00A8DED000A48F23043CDE9012122460A
:101BA0004621782005F053FF63E2604890ED030A78
:101BB000DFED5F0A20EE200ABCEEC00A10EE100A2C
:101BC00084B210200321594A92ED030ABCEEC00AE8
:101BD0008DED000A48F230432246CDE9011028215C
:101BE000322005F034FF514890ED040ADFED510A30
:101BF00020EE200ABCEEC00A10EE100A84B21021BA
:101C000003224A4890ED040ABCEEC00A8DED000A9A
:101C100048F23043CDE9012122462821782005F001
:101C200016FF424890ED050ADFED420A20EE200A39
:101C3000BCEEC00A10EE100A84B2102103223B4809
:101C400090ED050ABCEEC00A8DED000A48F2304363
:101C5000CDE9012122463721322005F0F8FE334834
:101C600090ED060ADFED330A20EE200ABCEEC00A32
:101C700010EE100A84B2102103222C4890ED060ABF
:101C8000BCEEC00A8DED000A48F23043CDE90121D7
:101C900022463721782005F0DAFE244890ED070A25
:101CA000DFED240A20EE200ABCEEC00A10EE100A76
:101CB00084B2102103221D4890ED070ABCEEC00A31
:101CC0008DED000A48F23043CDE90121224646213C
:101CD000322005F0BCFE154890ED080ADFED150A2C
:101CE00020EE200ABCEEC00A10EE100A84B21021C9
:101CF00003220E4890ED080ABCEEC00A8DED000AE2
:101D000048F23043CDE9012122464621782005F0F2
:101D10009EFE064890ED090ADFED060A20EE200A35
:101D2000BCEEC00A08E0000044030020D892002066
:101D30000000C84200007A4410EE100A84B210215C
:101D40000322CD4890ED090ABCEEC00A8DED000AD1
:101D500048F23043CDE9012122465521322005F0D9
:101D600076FEC54890ED0A0A5FED0E0A20EE200AC5
:101D7000BCEEC00A10EE100A84B210210322BE4845
:101D800090ED0A0ABCEEC00A8DED000A48F230431D
:101D9000CDE9012122465521782005F058FE68E161
:101DA000B54890ED030A5FED1E0A20EE200ABCEE56
:101DB000C00A10EE100A84B20C200321AE4A92ED44
:101DC000030ABCEEC00A8DED000A48F230432246F9
:101DD000CDE901102821322005F039FEA64890ED0A
:101DE000040A5FED2C0A20EE200ABCEEC00A10EEB9
:101DF000100A84B20C2103229F4890ED040ABCEE25
:101E0000C00A8DED000A48F23043CDE90121224697
:101E10002821782005F01BFE974890ED050A5FED1C
:101E20003B0A20EE200ABCEEC00A10EE100A84B273
:101E30000C210322904890ED050ABCEEC00A8DEDFE
:101E4000000A48F23043CDE90121224634213220F4
:101E500005F0FDFD884890ED060A5FED4A0A20EE88
:101E6000200ABCEEC00A10EE100A84B20C21032234
:101E7000814890ED060ABCEEC00A8DED000A48F2DA
:101E80003043CDE9012122463421782005F0DFFDE1
:101E9000794890ED070A5FED590A20EE200ABCEE62
:101EA000C00A10EE100A84B20C210322724890ED91
:101EB000070ABCEEC00A8DED000A48F23043CDE9B6
:101EC000012122464021322005F0C1FD6A4890EDF3
:101ED000080A5FED680A20EE200ABCEEC00A10EE88
:101EE000100A84B20C210322634890ED080ABCEE6C
:101EF000C00A8DED000A48F23043CDE901212246A7
:101F00004021782005F0A3FD5B4890ED090A5FEDC4
:101F1000770A20EE200ABCEEC00A10EE100A84B246
:101F20000C210322544890ED090ABCEEC00A8DED45
:101F3000000A48F23043CDE9012122464C213220EB
:101F400005F085FD4C4890ED0A0A5FED860A20EE0B
:101F5000200ABCEEC00A10EE100A84B20C21032243
:101F6000454890ED0A0ABCEEC00A8DED000A48F221
:101F70003043CDE9012122464C21782005F067FD50
:101F80003D4890ED0B0A5FED960A20EE200ABCEE6C
:101F9000C00A10EE100A84B20C210322364890EDDC
:101FA0000B0ABCEEC00A8DED000A48F23043CDE9C1
:101FB000012122465821322005F049FD2E4890ED9E
:101FC0000C0A5FEDA40A20EE200ABCEEC00A10EE57
:101FD000100A84B20C210322274890ED0C0ABCEEB3
:101FE000C00A8DED000A48F23043CDE901212246B6
:101FF0005821782005F02BFD1F4890ED0D0A5FED6C
:10200000B30A20EE200ABCEEC00A10EE100A84B219
:102010000C210322184890ED0D0ABCEEC00A8DED8C
:10202000000A48F23043CDE90121224664213220E2
:1020300005F00DFD104890ED0E0A5FEDC20A20EE8E
:10204000200ABCEEC00A10EE100A84B20C21032252
:10205000094890ED0E0ABCEEC00A8DED000A48F268
:102060003043CDE9012122466421782005F0EFFCC0
:1020700000BF00BF3EBD0000D892002010B503464F
:10208000002011E0C1B2002209E001F080040CB18F
:102090001C4600E0002484EA4104E1B2521C082AF4
:1020A000F3DB034C2154401CFF28EBDD10BD000086
:1020B0009A8C002010B500240480022904D10488E1
:1020C00044F00104048001E004880480048844EAA8
:1020D00042040480048844EA4314048010BD0000D4
:1020E00010B5024800F0ACFB10BD0000A40A0020AF
:1020F00010B5024800F0A4FB10BD000084090020C8
:1021000010B5024800F09CFB10BD0000440A0020FE
:1021100010B5024800F094FB10BD0000E409002057
:1021200010B5024800F08CFB10BD000054060020E2
:102130000146087810381823B0FBF3F20848805C99
:10214000C865032A05D908686FF30900001D886572
:1021500003E008686FF309008865886D7047000028
:102160001C090108014600208A6A8B69CBB932B18B
:10217000012A0DD0022A03D0032A10D10EE000BF9D
:10218000CB6A03F08073B3F1807F00D1012007E0B8
:10219000CB6AB3F1C07F00D1012001E000E000BFB5
:1021A00034E08B69B3F5005F1AD132B1012A07D050
:1021B000022A03D0032A11D10AE000BF01200EE059
:1021C000CB6A03F08073B3F1807F00D1012006E079
:1021D000CB6AB3F1C07F00D1012000E000BF15E061
:1021E00032B1012A05D0022A04D0032A0CD103E01F
:1021F00000BF00BF012008E0CB6A03F08073B3F199
:10220000807F00D1012000E000BF00BF704730B5E3
:102210000468246824F4802405682C6004686360E2
:102220008468402C04D10468A2600468E16003E083
:102230000468A1600468E26030BD70473EB529497A
:102240004978294A52F821000CF0E6FE48F2304065
:10225000642396221E2100900A2005F0ADF848F272
:1022600030404FF6FF71CDE900101E4840781E49FE
:1022700051F82000421C102328213C2005F034F99D
:1022800018494978184A52F82110481C0CF0C4FE2D
:10229000164951F82000806804681020032148F294
:1022A00030430022CDE9004102904121084605F06B
:1022B000CEFB48F230404FF4784110230CA2CDE918
:1022C00000104121142005F00FF948F230404FF47E
:1022D0007841102307A2CDE900104121822005F0AA
:1022E00003F93EBD18030020F00200207003002017
:1022F0002D0000002B00000072B600BFFEE70000BA
:1023000010B5002201B909E0012901D10A0205E056
:10231000022901D10A0201E04FF440720E4B1B6802
:1023200023F440730C4C236023461B681343236043
:1023300023461B6823F0F803236023461B6802240E
:1023400044EAC0042343044C236023461B6843F43F
:102350008033236010BD0000103C02401C48006820
:1023600000F40070B0B11A48006820F400701849F9
:10237000086000BF0846006840F400600860084636
:10238000006820F40060086000BF0846006840F460
:10239000007008600E48006800F48060B0B10C481E
:1023A000006820F480600A49086000BF08460068A1
:1023B00040F4805008600846006820F480500860AF
:1023C00000BF0846006840F4806008607047000065
:1023D000003C02400A4A126822F44072084B1A601C
:1023E0001A46126842F004021A601A4612684FF444
:1023F000803343EA00231A43014B1A607047000000
:10240000103C0240074A126822F44072054B1A60E1
:102410001A4612681A601A46126842F001021A60DF
:1024200001707047103C024010B50A49096821F458
:102430004071084C21602146096841F440712160D7
:102440002146096841F0010121600260BFF36F8FEE
:10245000436010BD103C0240084A126822F44072EA
:10246000064B1A601A46126842F480721A601A46C5
:10247000126842F001021A6001807047103C02406D
:10248000084A126822F44072064B1A601A46126813
:1024900042F400721A601A46126842F001021A6091
:1024A00001607047103C02402348006800F01000B3
:1024B00040B12248C06940F010002049C861102096
:1024C0001D4908601C48006800F0200040B11B480E
:1024D000C06940F008001949C86120201649086009
:1024E0001548006800F0400040B11448C06940F051
:1024F00004001249C86140200F4908600E48006876
:1025000000F0800040B10D48C06940F002000B4966
:10251000C8618020084908600748006800F0020090
:1025200040B10648C06940F020000449C86102205B
:1025300001490860704700000C3C0240040B002079
:1025400070B50446002500201449C86100F044FD20
:10255000054609E0601C38B124B100F03DFD401B88
:10256000A04201D9032070BD0D48006800F48030FE
:102570000028EFD10A48006800F0010010B10120E6
:10258000074908600648006800F0F20018B1FFF73C
:102590008BFF0120E7E70020E5E70000040B0020A7
:1025A0000C3C02400146012903D10020074A10805B
:1025B0000AE0022903D10020054A108004E0032923
:1025C00002D10020034A10807047000098010020CB
:1025D0009A0100209C01002010B51020FDF7CCFED0
:1025E000044620460CF0FCFCE068012803D10548B5
:1025F0000CF0F6FC04E01022034904480CF09AFDAC
:1026000010BD0000289300204803002000000E08A1
:102610000148807870470000688C00200020054940
:10262000097919B9034991F9000001E00149487895
:1026300070470000688C00200A7802704A78427067
:102640008A788270CA78C2700A7902714A794271B6
:102650008A798271CA79C2710A7A02724A7A42729E
:10266000704700000148007870470000A901002071
:1026700070470000184890ED080A184880ED000ADD
:10268000154890ED090A154880ED010A124890EDB1
:102690000A0A124880ED020A0F4890ED0B0A0F4813
:1026A00080ED030A0C4890ED040A0C4880ED040A02
:1026B000094890ED050A094880ED050A064890EDA5
:1026C000060A064880ED060A034890ED070A03480B
:1026D00080ED070A7047000078910020A892002042
:1026E00070B50A480468001D0568001D066834447A
:1026F00054B108220649204604F0F6FC042204499D
:102700001031284604F0F0FC70BD0000107AFF1F65
:10271000CE0000200EB5FFF7A5FF012817D148F223
:1027200030401223A02200210090932004F0F0FEFC
:1027300001200DA1102248F23043CDE90021029082
:102740004FF6FF720221962005F0D2F90BE0FFF759
:1027500089FF40B94FF6FF701223A022002100909C
:10276000932004F0D5FE0EBD4300000070B5044672
:10277000A56D00F031FC064694F83500022808D01B
:102780008020606500BF002084F8340000BF012075
:1027900070BD2068006820F016002168086020687D
:1027A000406920F0800021684861206C08B9A06C65
:1027B00028B12068006820F00800216808602068BF
:1027C000006820F001002168086010E000F004FCBF
:1027D000801B05280BD920206065032084F8350074
:1027E00000BF002084F8340000BF0320D0E7206839
:1027F000006800F001000028E8D194F85C103F2048
:102800008840A860012084F8350000BF002084F8CB
:10281000340000BF00BFBBE7014691F83500022835
:1028200003D08020486501207047052081F83500DD
:102830000868006820F001000A6810600020F3E7D3
:10284000F8B50446002000908C4800684FF41651FB
:10285000B0FBF1F7A56D2E6894F85C100820884055
:10286000304098B12068006800F0040070B1206822
:10287000006820F004002168086094F85C100820CB
:102880008840A860606D40F00100606594F85C10BD
:1028900001208840304068B12068406900F0800025
:1028A00040B194F85C1001208840A860606D40F051
:1028B0000200606594F85C1004208840304068B1E4
:1028C0002068006800F0020040B194F85C10042019
:1028D0008840A860606D40F00400606594F85C106A
:1028E00010208840304078B32068006800F008006D
:1028F00050B394F85C1010208840A86020680068ED
:1029000000F4802080B12068006800F4002028B91D
:10291000206CC8B12046216C884715E0A06C98B1A6
:102920002046A16C88470FE02068006800F48070A2
:1029300028B92068006820F0080021680860206C31
:1029400010B12046216C884794F85C102020884004
:102950003040002865D02068006800F01000002892
:102960005FD094F85C1020208840A86094F835006F
:10297000052828D12068006820F01600216808602A
:102980002068406920F0800021684861206C08B907
:10299000A06C28B12068006820F008002168086059
:1029A00094F85C103F208840A860012084F835002E
:1029B00000BF002084F8340000BF206D10B1204615
:1029C000216D8847F8BD2068006800F4802080B140
:1029D0002068006800F4002028B9606C10B120461F
:1029E000616C88471DE0E06BD8B12046E16B8847F9
:1029F00017E02068006800F4807068B920680068FB
:102A000020F0100021680860012084F8350000BF24
:102A1000002084F8340000BFE06B10B12046E16B69
:102A20008847606D38B3606D00F00100F0B105209B
:102A300084F835002068006820F0010021680860F3
:102A400000BF0098401C0090B84200D905E0206803
:102A5000006800F001000028F3D100BF012084F8D5
:102A6000350000BF002084F8340000BFE06C10B1D6
:102A70002046E16C884700BFA4E700002C0000203E
:102A80002DE9F0410446002500F0A6FA074614B9E6
:102A90000120BDE8F081606A00B100BF022084F827
:102AA000350000BF002084F8340000BF20680068B3
:102AB00020F00100216808600AE000F08DFAC01BD8
:102AC000052805D920206065032084F83500E0E75B
:102AD0002068006800F001000028EED12068056839
:102AE00021480540D4E901010843E1680843216910
:102AF000084361690843A1690843E1690843216A01
:102B000008430543606A042803D1D4E90B01084354
:102B10000543206805602068456925F00705606A5F
:102B20000543606A04280DD1A06A0543E06A48B1F4
:102B30002046FFF717FB28B140206065012084F88C
:102B40003500A6E7206845612046FFF7F1FA064602
:102B500094F85C103F208840B06000206065012040
:102B600084F83500002094E73F8010F02DE9F0470D
:102B700004460D4616461F464FF00008D4F85890FC
:102B800000BF94F83400012802D10220BDE8F0878C
:102B9000012084F8340000BF94F83500012825D1C5
:102BA000022084F83500002060653B463246294605
:102BB0002046FFF72CFB94F85C103F208840C9F8B2
:102BC00008002068006840F0160021680860206C4A
:102BD00028B12068006840F008002168086020687B
:102BE000006840F001002168086006E000BF002096
:102BF00084F8340000BF4FF002084046C6E70000EA
:102C000070B5044600F0E8F906462546681C10B188
:102C100004480078054400BF00F0DEF9801BA8429C
:102C2000FAD370BD280000202DE9F04104460E467D
:102C30000127002500BF2548007E012802D102207F
:102C4000BDE8F08101202149087600BF4CF25030E8
:102C5000FFF776FC0746002F31D1401E3060206818
:102C600001280FD1207C6168FFF7B4FB4CF2503093
:102C7000FFF766FC07461648006820F00400144978
:102C800008601AE0A56812E0217C2846FFF738FBAF
:102C90004CF25030FFF754FC07460D48006820F016
:102CA000FA000B4908600FB1356005E06D1CD4E9EE
:102CB00002100844A842E7D800BFFFF74FFB00BF4F
:102CC00000200249087600BF3846B9E7040B00200F
:102CD000103C02400348006840F000400149086091
:102CE00000207047103C02402DE9F04106460F4697
:102CF00014461D464FF0010800BF1F48007E012802
:102D000002D10220BDE8F08101201B49087600BFF6
:102D10004CF25030FFF714FC8046B8F1000F23D17D
:102D200026B9E1B23846FFF76DFB12E0012E04D15F
:102D3000A1B23846FFF790FB0BE0022E04D12146EA
:102D40003846FFF79DFB04E022462B463846FFF746
:102D50006BFB4CF25030FFF7F3FB804607480068EE
:102D600020F001000549086000BF002002490876F4
:102D700000BF4046C6E70000040B0020103C0240A4
:102D800000200949096801F0004159B10749064A84
:102D90000C3A1160064911600349096801F00041CD
:102DA00001B1012070470000103C0240230167453B
:102DB000AB89EFCDF8B502460B4600250024002074
:102DC0000021D6E0012606FA01F51E6806EA050490
:102DD000AC4274D11E7906F00306012E04D01E7990
:102DE00006F00306022E13D190684F000326BE4062
:102DF000B0434F00DE68BE4030439060506801260B
:102E00008E40B0431E79C6F300168E4030435060AA
:102E10001E7906F00306032E09D0D0684F00032662
:102E2000BE40B0434F009E68BE403043D0601E7924
:102E300006F00306022E13D1CF0802F1200656F841
:102E400027004E07F70E0F26BE40B0434F07FF0E78
:102E50001E69BE403043CF0802F1200646F8270025
:102E600010684F000326BE40B0431E7906F00306EB
:102E70004F00BE40304310605E6806F44036002EBE
:102E800076D000BF002600963C4E366846F4804659
:102E90003A4F3E603E46366806F48046009600BFD4
:102EA00000BF374E8F0856F827008E07370F0F26C2
:102EB000BE40B043334EB24202D1002624E057E078
:102EC000314EB24201D101261EE0304EB24201D154
:102ED000022619E02E4EB24201D1032614E02D4EF7
:102EE000B24201D104260FE02B4EB24201D1052699
:102EF0000AE02A4EB24201D1062605E0284EB2422F
:102F000001D1072600E008268F073F0FBE4030435F
:102F10001B4E8F0846F82700224E3068A0435E689B
:102F200006F4801606B120431E4E3060361D306810
:102F3000A0435E6806F4001606B12043194E361D04
:102F40003060184E361F3068A0435E6806F40036C5
:102F500006B12043134E361F3060361F3068A04341
:102F60005E6806F4803606B120430E4E083E30609F
:102F7000491C1029FFF426AFF8BD00004438024078
:102F800008380140000002400004024000080240EE
:102F9000000C0240001002400014024000180240E1
:102FA000001C0240083C0140024613690B400BB173
:102FB000012000E00020704710B5426921EA0203B9
:102FC00002EA010443EA0443836110BD0AB181614E
:102FD00001E00B04836170470148006870470000FE
:102FE0002000002070B504460CB9012070BD4CF6DD
:102FF000CC402168086045F2555021680860D4E94A
:10300000001048602168A0688860FFF7E5FF05466A
:103010000BE0FFF7E1FF401B312806D92068C068AC
:1030200000F0030008B10320E0E72068C06800F06A
:1030300003000028EDD14AF6AA202168086000208C
:10304000D4E701464AF6AA200A68106000207047BB
:10305000034800680349097808440149086070473B
:10306000200000202800002010B50D48006840F422
:1030700000700B4908600846006840F480600860F2
:103080000846006840F480700860032000F0ACF847
:103090000F2000F007F800F02BF8002010BD000012
:1030A000003C024070B504460E4800784FF47A7137
:1030B000B1FBF0F00C490968B1FBF0F5284601F0CE
:1030C00089FD08B1012070BD102C07D200222146D5
:1030D000501E00F04BF80548046001E00120F2E7C3
:1030E0000020F0E7280000202C0000202400002011
:1030F00008B500BF002000901148006840F48040EF
:103100000F4908600846006800F48040009000BF46
:1031100000BF00BF00200090081F006840F08050F2
:10312000091F08600846006800F08050009000BF4A
:1031300000BF00220F21901E00F018F808BD00000B
:10314000443802400146084600280DDB00BF00BF9E
:1031500000F01F0301229A4043099B0003F1E02382
:10316000C3F8002100BF00BF00BF70472DE9F05F2A
:1031700080460D46164600270AF09CFC0746394655
:103180002A46334601F00700C0F1070ABAF1040FDE
:1031900002D94FF0040A01E0C0F1070AD14600F15C
:1031A000040ABAF1070F02D24FF0000A01E0A0F1C1
:1031B000030AD4464FF0010A0AFA09FAAAF1010AF1
:1031C0000AEA020A0AFA0CFA4FF0010B0BFA0CFB9E
:1031D000ABF1010B0BEA030B4AEA0B042146404614
:1031E0000AF070FCBDE8F09F00BF00F00702064B3C
:1031F00019684FF6FF031940044B0B4343EA0221C1
:10320000014B196000BF70470CED00E00000FA05AB
:10321000704702461068416200207047F0B50346CF
:1032200015461868446A21B944EA05401E68B06230
:1032300019E01868806A04EB1044002208E018685E
:1032400000F5827050F8220004EB1044501CC2B20A
:10325000481E9042F3D844EA0547186800F582708A
:103260004E1E40F826700020F0BD10B50446D4F87C
:10327000E00408F01FFF10BD70B504460D4605EBD5
:10328000C50304F1140101EB8301CA682946D4F88F
:10329000E00408F00AFE70BD70B504460D4605EB6B
:1032A000C50304F5157101EB8301CA682946D4F8FA
:1032B000E00408F07EFE70BD10B50446D4F8E004CA
:1032C00008F0FBFE10BD2DE9F04104460D4605F067
:1032D0008000802808D105F00F0000EBC00104F148
:1032E000140000EB810607E005F00F0000EBC001C1
:1032F00004F5157000EB8106314620680AF026F9C6
:1033000007463846BDE8F08170B504460E4606F023
:10331000800080280AD106F00F0000EBC00104F104
:10332000140000EB81050120687009E006F00F0031
:1033300000EBC00104F5157000EB810500206870FA
:1033400006F00F00287000BF94F89404012801D102
:10335000022070BD012084F8940400BF2946206833
:1033600009F088FC00BF002084F8940400BF00BF6F
:10337000EFE770B504460E4606F00F00217988424B
:1033800001D9012070BD06F0800080280AD106F026
:103390000F0000EBC00104F1140000EB81050120D7
:1033A000687009E006F00F0000EBC00104F515702D
:1033B00000EB8105002068700020A87006F00F0067
:1033C000287000BF94F89404012801D10220D9E7A5
:1033D000012084F8940400BF2946206809F048FEC3
:1033E00000BF002084F8940400BF00BFCAE7024673
:1033F00001F00F0000EBC00302F5157000EB830035
:10340000406970472DE9F04705460E4690461F4635
:103410004FF0000906F0800080280AD106F00F0066
:1034200000EBC00105F1140000EB81040120607085
:1034300009E006F00F0000EBC00105F5157000EB88
:1034400081040020607006F00F002070C4F808802E
:103450002771607808B120786083022F01D10020A5
:10346000607100BF95F89404012802D10220BDE8E4
:10347000F087012085F8940400BF2146286809F0F0
:103480000DFB00BF002085F8940400BF4846EEE71E
:103490002DE9F04105460E461746984606F00F0006
:1034A00000EBC00105F5157000EB8104E760C4F87E
:1034B000108000206061607006F00F002070A87915
:1034C000012800D1E761AA792146286809F064FE45
:1034D0000020BDE8F08170B504460D4605F00F00F0
:1034E0002179884201D9012070BD05F08000802833
:1034F0000AD105F00F0000EBC00104F1140000EB4D
:1035000081060120707007E005EBC50104F5157018
:1035100000EB8106002070700120B07005F00F00F4
:10352000307000BF94F89404012801D10220DBE739
:10353000012084F8940400BF3146206809F0DFFDC3
:1035400005F00F0028B9A17904F29C42206809F027
:1035500057FD00BF002084F8940400BF00BFC3E7FC
:103560002DE9F04105460E461746984606F00F0035
:1035700000EBC00105F1140000EB8104E760C4F822
:103580001080002060610120607006F00F00207044
:10359000A879012800D1E761AA792146286809F0B5
:1035A000FBFD0020BDE8F0812DE9FE4F0446D4F874
:1035B00000B05E4620680AF0ABF8002874D120689D
:1035C0000AF0E5F808B9BDE8FE8F40F6080080591A
:1035D000C0F30D20C4F8D40420680AF0D8F800F035
:1035E0000200022805D12068406900F0020021682D
:1035F000486120680AF0CBF800F01000102845D18F
:103600002068806920F0100021688861DBF8209034
:1036100009F00F0000EBC00104F5157000EB810A02
:10362000C9F3434002281AD147F6F07009EA0000B6
:1036300030B3C9F30A125846DAF80C100AF0ACF8A5
:10364000C9F30A11DAF80C000844CAF80C00C9F3EF
:103650000A11DAF814000844CAF8140010E0C9F39B
:10366000434006280CD1082204F29C4158460AF037
:1036700093F8C9F30A11DAF814000844CAF81400E0
:103680002068806940F010002168886120680AF095
:103690007EF800F40020B0F5002F7BD100252068D3
:1036A0000AF045F8029072E0E1E2029800F00100B1
:1036B000002868D0E9B220680AF05CF8804608F07B
:1036C000010048B1012106F5306000EB4510816032
:1036D0002946204604F0CEFE08F00800082809D14B
:1036E000082106F5306000EB451081602946204630
:1036F00004F08EFE08F01000102805D1102106F508
:10370000306000EB4510816008F00200022824D1EF
:10371000DBF8140000F08000802807D140F6040098
:10372000805940F4806140F60400815105EBC501E9
:1037300004F5157000EB810A9AF80300012806D100
:1037400000208AF80300E9B2204600F09BFA02212B
:1037500006F5306000EB4510816008F0200020285D
:1037600005D1202106F5306000EB4510816008F49A
:103770000050B0F5005F06D14FF4005106F53060FF
:1037800000EB451081606D1C029840080290029881
:1037900000288AD1206809F0FAFF00F48020B0F5F3
:1037A000802F7DD1206809F0B8FF029000259AE0B3
:1037B000029800F00100002873D0E9B2206809F0F7
:1037C000C0FF804608F00100F0B305F00F010120B2
:1037D0008840019040F634008159019821EA0000A8
:1037E00040F634018851012106F5106000EB4510C8
:1037F0008160A079012824D105EBC50104F11400F2
:1038000000EB810005EBC502C16804F1140000EB78
:1038100082008068014405EBC50204F1140000EB4E
:103820008200C1606DB905EBC50104F1140000EB25
:103830008100006928B904F29C420121206809F046
:10384000DFFBE9B2204600E001E0FFF715FD08F0DC
:103850000800082805D1082106F5106000EB451086
:10386000816008F01000102805D1102106F51060C5
:1038700000EB4510816008F04000402805D1402150
:1038800006F5106000EB4510816008F00200022888
:103890001DD12946584609F0FEFE05EBC50101E0A1
:1038A00025E01CE004F1140000EB810A9AF8030003
:1038B000012806D100208AF80300E9B2204600F072
:1038C000D8F9022106F5106000EB4510816008F080
:1038D0008000802803D12946204604F06DFE6D1C2F
:1038E000029840080290029800287FF461AF206897
:1038F00009F04DFF00F00040B0F1004F1CD140F640
:103900000400805920F0010140F60400815194F830
:10391000CC04012807D1002084F8CC0400212046E3
:10392000FFF776FC02E0204600F0D6FA20684069F6
:1039300000F0004021684861206809F028FF00F489
:103940000060B0F5006F0ED140F60800805900F01D
:10395000010010B1204600F017FB2068406900F418
:10396000006021684861206809F011FF00F4805070
:10397000B0F5805F7ED140F60400805920F001014F
:1039800040F6040081511021206809F084FE0027D0
:1039900032E04FF67F3106F5106000EB4710816092
:1039A00006F5106000EB4710006820F4001106F5E2
:1039B000106000EB471001604FF67F3106F5306074
:1039C00000EB4710816006F5306000EB471000689F
:1039D00020F4001106F5306000EB4710016006F599
:1039E000306000EB4710006840F0006106F5306081
:1039F00000EB471001607F1C2079B842C9D840F61F
:103A00001C00805940F0011140F61C008151E07B00
:103A100070B1D6F8840840F00B01C6F8841840F65F
:103A20004400805940F00B0140F6440081510FE002
:103A300040F61400805942F22B01084340F614016D
:103A40008851081F805940F00B014FF401608151EB
:103A5000D6F8000820F4FE60C6F80008A17904F248
:103A60009C42206809F0CCFA2068406900F480503C
:103A7000216800E000E04861206809F088FE00F459
:103A80000050B0F5005F17D1206809F06FF820688A
:103A900009F02BFEE07100F053FB0090E279206802
:103AA000009909F0FBFE204600F0FEF9206840690D
:103AB00000F4005021684861206809F068FE00F0B9
:103AC0000800082808D1204600F00DFA2068406957
:103AD00000F0080021684861206809F058FE00F0F5
:103AE0008000802818D1DBF8180020F08000CBF887
:103AF000180001250DE005EBC50104F5157000EB7C
:103B00008100C078012803D1E9B22046FFF7DBFB32
:103B10006D1C2079A842EED8206809F038FE00F428
:103B20008010B0F5801F2DD1012522E006F5106030
:103B300000EB4510D0F8009005EBC50104F114002E
:103B400000EB81000079012812D109F00040B0F1AA
:103B5000004F0DD1012105EBC50204F1140000EB6B
:103B60008200C170E8B240F080012046FFF7ABFB55
:103B70006D1C2079A842D9D82068406900F48010D3
:103B800021684861206809F002FE00F40010B0F5D9
:103B9000001F44D1012538E006F5306000EB4510E8
:103BA000D0F8009005EBC50104F5157000EB81001D
:103BB0000079012828D109F00040B0F1004F23D14D
:103BC00009F4803094F8D41401F0010188421BD12B
:103BD000012105EBC50204F5157000EB8200C170F0
:103BE000DBF8180040F08000CBF81800DBF8140078
:103BF00000F0800040B940F60400805940F40071A4
:103C000040F60400815103E06D1C2079A842C3D81E
:103C100000BF2068406900F40010216848612068F6
:103C200009F0B5FD00F08040B0F1804F08D120468A
:103C3000FFF71BFB2068406900F080402168486165
:103C4000206809F0A4FD00F0040004280FD12068CA
:103C5000D0F8049009F00400042802D12046FFF7B0
:103C60002BFB2068406840EA09002168486000BFDB
:103C7000A9E470B504460D462946D4F8E00408F0DE
:103C80008DFA70BD70B504460D462946D4F8E0049F
:103C900008F0A8FA70BDF8B504460CB90120F8BDCB
:103CA000266894F8950428B9002084F894042046E6
:103CB00000F0A0F8032084F89504B6F1A04F01D1DC
:103CC0000021A171206809F093F9207C8DF8000093
:103CD00094E80F0008F05EFF20B1022084F89504FC
:103CE0000120DCE70021206809F086FD20B10220D8
:103CF00084F895040120D2E7002531E0012105EB8D
:103D0000C50204F1140000EB8200417005EBC5010F
:103D100004F1140000F8215005EBC50100EB81000F
:103D20004583002105EBC50204F1140000EB82007D
:103D3000017105EBC50204F1140000EB8200816003
:103D400005EBC50204F1140000EB8200C16005EB35
:103D5000C50204F1140000EB82000161681CC5B2C9
:103D60002079A842CADC00252AE0002105EBC50223
:103D700004F5157000EB8200417005EBC50104F5F8
:103D8000157000F82150002105EBC50200EB820000
:103D9000017105EBC50204F5157000EB820081602E
:103DA00005EBC50204F5157000EB8200C16005EB60
:103DB000C50204F5157000EB82000161681CC5B2F4
:103DC0002079A842D1DC207C8DF8000094E80F0017
:103DD00009F01AF820B1022084F8950401205EE76A
:103DE00000206074012084F89504206808F0FAFF30
:103DF000002054E710B586B00446142101A8FCF752
:103E0000D3FC26492068884245D100BF002000909D
:103E10002348006840F00200214908600846006815
:103E200000F00200009000BF00BF4FF480400190FE
:103E30000220029000200390032004900C200590A3
:103E400001A91848FEF7B6FF4FF400400190022088
:103E5000029001200390032004900C20059001A9FA
:103E60001048FEF7A7FF00BF002000900C48006834
:103E700040F000500A4908600846006800F0005011
:103E8000009000BF00BF002205214D20FFF76EF912
:103E90004D20FFF757F906B010BD000000000440A8
:103EA000303802400004024070B504460125E07934
:103EB00008B9002506E0E079022801D1012501E0DA
:103EC000FEF71AFA2946D4F8E00408F034FAD4F8D8
:103ED000E00408F0DBF970BD10B50446D4F8E00446
:103EE00008F00AFA10BD10B50446D4F8E00408F052
:103EF0000EFA10BD70B504460D4600BF94F8940448
:103F0000012801D1022070BD012084F8940400BF73
:103F100065742946206809F0A3FC00BF002084F8DE
:103F2000940400BF00BFEEE710B5044604F29C41C4
:103F3000D4F8E00408F016FA10BD70B50446256800
:103F400000BF94F89404012801D1022070BD012023
:103F500084F8940400BFE86800F0400030B1607B52
:103F6000012803D1A86B40F48030A863206809F0D1
:103F700063FB206808F024FF00BF002084F894044D
:103F800000BF00BFE2E7000010B50446D4F8E0042B
:103F900008F045FA2068D0F8000E40F001002168D2
:103FA000C1F8000EE07A28B10348006840F006002E
:103FB0000149086010BD000010ED00E070B5044636
:103FC0000D460CB9012070BD5848006800F007008C
:103FD000A84209D255490D700846006800F0070054
:103FE000A84201D00120EEE7207800F0020002286C
:103FF0001DD1207800F00400042805D14C48006849
:1040000040F4E0504A490860207800F00800082891
:1040100005D14748006840F460404549086044487D
:10402000006820F0F000A16808434149086020784A
:1040300000F00100A8B36068012807D13C480838A7
:104040000068C0F34040B8B90120BCE760680228AE
:1040500002D06068032807D1354808380068C0F3EB
:10406000406048B90120AEE7314808380068C0F325
:10407000400008B90120A6E72D48006820F00300A1
:10408000616808432A490860FEF7A6FF064609E072
:10409000FEF7A2FF801B41F28831884202D903203B
:1040A00091E707E02248006800F00C006168B0EB7F
:1040B000810FEDD11D48006800F00700A84209D922
:1040C0001A490D700846006800F00700A84201D0A8
:1040D000012078E7207800F00400042807D1144874
:1040E000006820F4E050E168084311490860207836
:1040F00000F00800082808D10D48006820F460404E
:10410000216940EAC1000A49086000F03FF8084907
:104110000968C1F30311074A515CC84006490860A9
:1041200006480068FEF7BEFF00204CE7003C024056
:1041300008380240240901082C0000202400002037
:1041400001480068704700002C00002000B5FFF710
:10415000F7FF04490968C1F38221034A515CC84052
:1041600000BD0000083802403409010800B5FFF71F
:10417000E7FF04490968C1F34231034A515CC84072
:1041800000BD000008380240340901082DE9F0475D
:10419000002400250026A1462548006800F00C00F8
:1041A00020B1042805D008283AD105E0DFF8849032
:1041B00039E0DFF8849036E01D48001F006800F009
:1041C0003F041B48001F006800F4800078B11A48C3
:1041D0001749091F0968C1F38811A0FB0170014646
:1041E000224600233846FCF7F6F805460EE0114853
:1041F0000F49091F0968C1F38811A0FB017001462E
:10420000224600233846FCF7E6F805460848001F1A
:104210000068C0F30140401C4600B5FBF6F902E01F
:10422000DFF8109000BF00BF4846BDE8F0870000EF
:10423000083802400024F40000127A00F8B5044661
:104240000CB90120F8BD207800F00100002874D0DE
:10425000F948006800F00C0004280DD0F64800680A
:1042600000F00C00082813D1F348001F006800F488
:104270008000B0F5800F0BD1EF4808380068C0F31C
:104280004040002859D06068002856D10120D9E765
:1042900000BF6068B0F5803F08D1E7480838006883
:1042A00040F48030E449083908601EE06068B0F5E9
:1042B000A02F0DD1E0480838006840F48020DE4986
:1042C000083908600846006840F4803008600CE057
:1042D000D9480838006820F48030D7490839086088
:1042E0000846006820F48020086000BF606890B134
:1042F000FEF772FE054606E0FEF76EFE401B6428E0
:1043000001D903209EE7CC4808380068C0F340403C
:104310000028F1D011E0FEF75FFE054606E0FEF74B
:104320005BFE401B642801D903208BE7C248083894
:104330000068C0F340400028F1D1207800F002006E
:1043400002285FD1BC48006800F00C0058B1BA48A0
:10435000006800F00C0008281CD1B748001F006856
:1043600000F48000B0B9B44808380068C0F34000D9
:1043700020B1E068012801D0012063E7AE48083889
:10438000006820F0F800216940EAC100AA49083914
:10439000086037E0E06800B30120A8490860FEF734
:1043A0001BFE054606E0FEF717FE401B022801D95A
:1043B000032047E7A04808380068C0F34000002801
:1043C000F1D09D480838006820F0F800216940EAE3
:1043D000C10099490839086014E000209749086035
:1043E000FEF7FAFD054606E0FEF7F6FD401B022843
:1043F00001D9032026E7904808380068C0F3400040
:104400000028F1D1207800F0080008282CD160693C
:10441000A8B101208A490860FEF7DEFD054606E0E6
:10442000FEF7DAFD401B022801D903200AE7824883
:104430006C300068C0F340000028F1D014E0002088
:104440007F490860FEF7C8FD054606E0FEF7C4FD9B
:10445000401B022801D90320F4E677486C3000683D
:10446000C0F340000028F1D1207800F004000428B7
:1044700070D1002770483830006800F0805090B943
:1044800000BF002000906C483830006840F0805039
:104490006949383108600846006800F08050009093
:1044A00000BF00BF01276748006800F48070B0B902
:1044B0006448006840F4807062490860FEF78CFD33
:1044C000054606E0FEF788FD401B022801D90320BF
:1044D000B8E65C48006800F480700028F2D000BFA5
:1044E000A068012808D154486830006840F00100F5
:1044F0005149683108601DE0A06805280DD14E487B
:104500006830006840F004004B4968310860084694
:10451000006840F0010008600CE04748683000681F
:1045200020F001004449683108600846006820F026
:104530000400086000BFA068A8B1FEF74DFD054665
:1045400009E0FEF749FD401B41F28831884202D95B
:10455000032077E626E0384868300068C0F3400062
:104560000028EED013E0FEF737FD054608E0FEF721
:1045700033FD401B41F28831884201D9032061E6B6
:104580002D4868300068C0F340000028EFD1012FAB
:1045900007D129483830006820F08050264938314A
:1045A000086000BFA069002845D02348006800F0DB
:1045B0000C0008285DD0A069022845D100201F49C1
:1045C0000866FEF709FD054606E0FEF705FD401BFF
:1045D000022801D9032035E6174808380068C0F3DF
:1045E00040600028F1D1D4E907010843616A40EA3C
:1045F00081110122A06AC2EB500041EA00412C2047
:10460000005D41EA00600C49091F086001200B4968
:104610000866FEF7E1FC054606E0FEF7DDFC401B00
:10462000022801D903200DE6034808380068C0F3CA
:1046300040600028F1D049E00838024000004742BD
:10464000800E474200700040002021490866FEF7B6
:10465000C3FC054606E0FEF7BFFC401B022801D95B
:104660000320EFE51B480068C0F340600028F2D14A
:104670002CE0A069012800D1E4E51648001D066879
:10468000A069012820D006F48001E06981421BD195
:1046900006F03F01206A814216D147F6C0703040D3
:1046A000616AB0EB811F0FD106F440310122A06A8C
:1046B000C2EB5000B1EB004F06D106F070612C2028
:1046C000005DB1EB006F01D00120BBE50020B9E532
:1046D000000047420038024070470000F8B5044629
:1046E0002068466820688568C5F3801048B905F0E1
:1046F000010030B1C6F3801018B12046216C884704
:10470000F8BDC5F3400030B1C6F3C01018B1204663
:10471000616C8847F4E7C5F3401030B9C5F38010E9
:1047200018B9C5F3002000287CD0C6F3401000283B
:104730007DD0C5F38010F0B194F8510003280ED05D
:10474000606D40F00400606500BF002000902068AC
:10475000C068009020688068009000BF0BE000BF38
:10476000002000902068C068009020688068009059
:1047700000BF00BFC4E7C5F3401088B1606D40F0D2
:104780000100606500BF00200090206880680090F4
:104790002068006820F040002168086000BF00BF6A
:1047A000C5F3002058B1606D40F00800606500BF9F
:1047B0000020009020688068009000BF00BF606DFE
:1047C00078B32068406820F0E0002168486001204C
:1047D00084F8510006F00200022802D006F0010021
:1047E00008B32068406820F0030021684860E06C4E
:1047F00050B11048E16C0865E06CFEF70DF818B197
:10480000606D40F040006065A06C50B10948A16C3B
:104810000865A06CFEF700F818B1606D40F040002C
:10482000606503E003E02046FFF756FF68E700BF3E
:1048300066E700004D9E000810B504460CB9012043
:1048400010BD606A38B96068B0F5827F00D105E0BC
:104850000021E16102E00021216161610021A1628A
:1048600094F8510028B9002084F85000204600F048
:1048700047F8022084F851002068006820F04000CA
:1048800021680860A08800F48270218901F4044145
:104890000843A18901F400610843217C01F0020171
:1048A0000843217D01F001010843218B01F40071CF
:1048B0000843217F01F0380108432021095D01F000
:1048C00080010843218D01F40051084321680860EC
:1048D0000421A06901EA104094F8241001F01001AD
:1048E0000843216848602068C06920F4006021689E
:1048F000C86100206065012084F8510000209FE716
:1049000010B586B00446142101A8FBF74DFF3C49C1
:104910002068884272D100BF0020009039480068AA
:1049200040F48050374908600846006800F4805021
:10493000009000BF00BF00BF002000903148143835
:10494000006840F001002F491439086008460068EB
:1049500000F00100009000BF00BF00BF00200090E9
:104960000846006840F0020008600846006800F051
:104970000200009000BF00BFA02001900220029022
:1049800001200390032004900520059001A91E48F2
:10499000FEF710FA102001900220029000200390F0
:1049A000032004900520059001A91848FEF702FA9B
:1049B0001748184908604FF0C0604860402115480A
:1049C00081600021C1604FF480610161002141617B
:1049D0008161C16101624162FEF752F808B1FDF7E1
:1049E0008BFC00BF0B48A064846300BF002207213A
:1049F0002320FEF7BBFB2320FEF7A4FB06B010BD6F
:104A000000300140443802400000024000040240EF
:104A100058640240540600202DE9F84F04468846A9
:104A200016461D464FF0000A00BF94F850000128BA
:104A300002D10220BDE8F88F012084F8500000BFA9
:104A4000FEF7CAFA0746B14694F85100012802D091
:104A50004FF0020AB7E0B8F1000F00D016B94FF0DE
:104A6000010AB0E0032084F8510000206065C4F81A
:104A70003080A686E686A063A087E0876064206415
:104A8000A068B0F5004F0BD12068006820F040000E
:104A9000216808602068006840F480402168086050
:104AA0002068006800F04000402805D020680068B9
:104AB00040F0400021680860E068B0F5006F32D136
:104AC000606810B1B9F1010F09D1206B008821682D
:104AD000C860206B801C2063E08E401EE0861EE0D4
:104AE0002068806800F0020002280AD1206B00884C
:104AF0002168C860206B801C2063E08E401EE08629
:104B00000DE0FEF769FAC01BA84201D3681C00B98A
:104B10002DB94FF0030A012084F8510053E0E08ED4
:104B20000028DDD131E0606810B1B9F1010F09D181
:104B3000206B007821680873206B401C2063E08E96
:104B4000401EE0861EE02068806800F00200022817
:104B50000AD1206B007821680873206B401C206309
:104B6000E08E401EE0860DE0FEF736FAC01BA8423C
:104B700001D3681C00B92DB94FF0030A012084F855
:104B8000510020E0E08E0028DDD13A46294620463B
:104B900005F066F908B120206065A06850B900BF33
:104BA000002000902068C068009020688068009015
:104BB00000BF00BF606D10B14FF0010A02E001209C
:104BC00084F8510000BF00BF002084F8500000BFEF
:104BD00050462FE770B504462546681EB0F1807F29
:104BE00001D301200FE0681E4FF0E02148610F2142
:104BF0004FF0FF3008F066FF00204FF0E0218861A1
:104C000007200861002070BD7047704730B502462C
:104C10000B4600BF92F83C00012801D1022030BDB4
:104C2000012082F83C0000BF022082F83D0010689D
:104C300044681068816824F07004186804431068A0
:104C40004460184D1068A8421BD01068B0F1804F26
:104C500017D0154D1068A84213D0144D1068A84203
:104C60000FD0134D1068A8420BD0124D1068A84207
:104C700007D0114D1068A84203D0104D1068A8420B
:104C800005D121F08001586801431068816001203E
:104C900082F83D0000BF002082F83C0000BF00BF4A
:104CA000BDE7000000000140000400400008004093
:104CB000000C00400004014000400140001800408A
:104CC00010B504460CB9012010BD94F83D0028B978
:104CD000002084F83C00204600F026F8022084F8EA
:104CE0003D00211D206805F065FC012084F8460088
:104CF00000BF84F83E0001213F20015540200155AE
:104D00004120015500BF00BF012084F8420043202C
:104D10000155442001554520015500BF012084F86C
:104D20003D000020D0E7000010B586B004461421F5
:104D300001A8FBF739FD6D492068884239D100BFD1
:104D4000002000906A48006840F00100684908604F
:104D50000846006800F00100009000BF00BF00BFDF
:104D60000020009062481438006840F0010060495B
:104D7000143908600846006800F00100009000BF88
:104D800000BF4FF4106001900220029001200390B8
:104D9000002004900120059001A95648FEF70AF86A
:104DA000002205211920FEF7E1F91920FEF7CAF9C2
:104DB00099E02068B0F1804F58D100BF00200090EA
:104DC0004B48001F006840F001004949091F086076
:104DD0000846006800F00100009000BF00BF00BF5F
:104DE0000020009042481438006840F0010040491B
:104DF000143908600846006800F00100009000BF08
:104E000000BF00BF002000900846006840F002008C
:104E100008600846006800F00200009000BF00BF74
:104E20004FF40040019002200290012003900020E6
:104E300004900120059001A92E48FDF7BBFF082032
:104E40000190022002900120039000200490012094
:104E5000059001A92848FDF7ADFF002205211C207F
:104E6000FEF784F91C20FEF76DF93CE02349206829
:104E700088421AD100BF002000901D48001F006822
:104E800040F010001A49091F08600846006800F049
:104E90001000009000BF00BF002205213620FEF761
:104EA00065F93620FEF74EF91DE015492068884265
:104EB00019D100BF002000900D48001F006840F08D
:104EC00020000B49091F08600846006800F0200018
:104ED000009000BF00BF002207213720FEF746F9EF
:104EE0003720FEF72FF906B010BD0000000001408A
:104EF000443802400000024000040240001000401C
:104F000000140040014691F83D00012801D0012025
:104F10007047022081F83D000868C06840F0010039
:104F20000B68D8601A4B086898421BD00868B0F12B
:104F3000804F17D0174B0868984213D0164B08685B
:104F400098420FD0154B086898420BD0144B086854
:104F5000984207D0134B0868984203D0124B086858
:104F600098420CD10868806800F00702062A0CD02D
:104F70000868006840F001000B68186005E00868E8
:104F8000006840F001000B6818600020C0E70000D6
:104F9000000001400004004000080040000C0040F8
:104FA0000004014000400140001800402DE9F0419C
:104FB00004460D46002700BF94F83C00012802D1AA
:104FC0000220BDE8F081012084F83C0000BF0220EF
:104FD00084F83D002068866826F0770626F47F4630
:104FE000206886602868502833D00CDC202850D0F8
:104FF00004DC00284BD0102851D149E0302849D09A
:1050000040284CD139E060282DD0702807D0B0F569
:10501000805F03D0B0F5005F41D10DE041E0D5E9FC
:1050200002136A68206805F04AFB2068866846F02B
:1050300077062068866034E0D5E902136A68206844
:1050400005F03DFB2068806840F48040216888605E
:1050500027E0EA686968206805F045FB5021206870
:1050600005F038FB1DE0EA686968206805F096FBEA
:105070006021206805F02EFB13E0EA68696820686B
:1050800005F031FB4021206805F024FB09E000BF5A
:1050900000BF00BF2968206805F01CFB01E0012764
:1050A00000BF00BF012084F83D0000BF002084F84D
:1050B0003C0000BF384684E701B58AB0F6490A983B
:1050C00008600A980068F549096888427ED10A9804
:1050D000007F01287BD1F248007820B101281ED042
:1050E00002281BD13CE0EF480068EF49086000BF90
:1050F000EA480068006A20F00A00E8490968086286
:10510000E6480068006A40F00200E4490968086265
:1051100000BFE3480078401CE1490870A1E0E14885
:105120000068E249086008460068DF490968401ADB
:10513000DF49086000BFD9480068006A20F00A0013
:10514000D64909680862D5480068006AD3490968E9
:10515000086200BFD2480078401CD149087080E046
:10516000D2480068CF490968081AD249086000216E
:10517000CA4801F051FACE480068CE49096808448F
:1051800003900BF04FF8CDE904019DED040B53ECB7
:10519000102B9FEDC90B51EC100B0AF0EBFE9FEDAD
:1051A000C80B53EC102BCDE906019DED060B51EC1D
:1051B000100B0AF0DFFECDE908019DED080B51EC64
:1051C000100B0AF0F1FDC049086001E0CCE049E0B5
:1051D000B7480068B7490968084403900BF022F803
:1051E000CDE90601B248006801900BF01BF89FED75
:1051F000B70B53EC102BCDE902019DED020B51ECE6
:10520000100B0BF05FF8CDE904019DED060B53EC9C
:10521000102B9DED040B51EC100B0AF0ABFECDE909
:1052200008019DED080B51EC100B0AF0BDFDA949DA
:10523000086000209A49087000BF98480068006A1A
:1052400020F00A0095490968086294480068006ADD
:1052500092490968086200BF0021904801F014F9E2
:1052600000BF00BF0A98007F02287DD18C4840789B
:1052700020B101281ED002281BD13CE089480068DB
:105280008949486000BF85480068006A20F0A00096
:1052900082490968086281480068006A40F020007D
:1052A0007E490968086200BF7D484078401C7C49FF
:1052B0004870A0E07B4800687C4948600846406828
:1052C00079494968401A7A49486000BF73480068C4
:1052D000006A20F0A0007149096808626F48006800
:1052E000006A6E490968086200BF6D484078401C3A
:1052F0006B4948707FE06D4840686A490968081A40
:105300006C4948600421654801F086F968484068A6
:1053100068494968084403900AF084FFCDE9040114
:105320009DED040B53EC102B9FED630B51EC100B18
:105330000AF020FE9FED620B53EC102BCDE9060125
:105340009DED060B51EC100B0AF014FECDE908019F
:105350009DED080B51EC100B0AF026FD5A494860F0
:1053600053484068534900E046E0496808440390C8
:105370000AF058FFCDE906014D48406801900AF057
:1053800051FF9FED520B53EC102BCDE902019DED27
:10539000020B51EC100B0AF095FFCDE904019DEDD5
:1053A000060B53EC102B9DED040B51EC100B0AF087
:1053B000E1FDCDE908019DED080B51EC100B0AF061
:1053C000F3FC4449486000203549487000BF334829
:1053D0000068006A20F0A0003049096808622F4880
:1053E0000068006A2D490968086200BF04212B4843
:1053F00001F04AF800BF00BF0A9800683649096802
:10540000884248D10A98007F01286FD1334800783C
:1054100020B101281ED002281BD168E02148006875
:105420002F49086000BF2C480068006A20F00A007D
:1054300029490968086228480068006A40F00200AB
:1054400025490968086200BF24480078401C2349A8
:105450000870CAE0134800682249086008460068DE
:105460001F490968401A2049086000BF1A480068AF
:10547000006A20F00A0018490968086216480068A6
:10548000006A15490968086200BF14480078401C8A
:1054900012490870A9E0D3E298020020FC0600201F
:1054A0008C02002084020020089200201892002024
:1054B000E8910020F89100200000000080842E4137
:1054C0000000000000002040489100200000000083
:1054D00000005940789100204407002090020020ED
:1054E0004892002058920020289200207EE0FE483A
:1054F0000068FE490968081AFD4908600021FD4856
:1055000001F08AF8FC480068F949096808440390EA
:105510000AF088FECDE904019DED040B53EC102B3D
:105520001FED1B0B51EC100B0AF024FD1FED1C0BA3
:1055300053EC102BCDE906019DED060B51EC100B41
:105540000AF018FDCDE908019DED080B51EC100B98
:105550000AF02AFCE9490861E7480068E44909685B
:10556000084403900AF05EFECDE90601E2480068B7
:1055700001900AF057FE1FED2B0B53EC102BCDE9D9
:1055800002019DED020B51EC100B0AF09BFECDE9E0
:1055900004019DED060B53EC102B9DED040B51EC1B
:1055A000100B0AF0E7FCCDE908019DED080B51EC6A
:1055B000100B0AF0F9FBD24908610020D1490870AC
:1055C00000BFCC480068006A20F00A00C949096899
:1055D0000862C8480068006AC6490968086200BFD6
:1055E0000021C44800F050FF00BF00BF0A98007FB0
:1055F00002287DD1C348407820B101281ED002285E
:105600001BD13CE0B9480068BF49486000BFB948B9
:105610000068006A20F0A000B64909680862B54831
:105620000068006A40F02000B2490968086200BFC3
:10563000B4484078401CB3494870A0E0AB480068CB
:10564000A949486008464068AF494968401AAA49D4
:10565000486000BFA7480068006A20F0A000A54984
:1056600009680862A3480068006AA24909680862DC
:1056700000BFA4484078401CA24948707FE09A4887
:1056800040689A490968081A99494860042199486C
:1056900000F0C2FF98484068954949680844039063
:1056A0000AF0C0FDCDE904019DED040B53EC102B75
:1056B0001FED7F0B51EC100B0AF05CFC1FED800B13
:1056C00053EC102BCDE906019DED060B51EC100BB0
:1056D0000AF050FCCDE908019DED080B51EC100BD0
:1056E0000AF062FB8549486183484068804900E0D0
:1056F00046E04968084403900AF094FDCDE90601AC
:105700007D48406801900AF08DFD1FED900B53EC31
:10571000102BCDE902019DED020B51EC100B0AF0AC
:10572000D1FDCDE904019DED060B53EC102B9DED51
:10573000040B51EC100B0AF01DFCCDE908019DEDA6
:10574000080B51EC100B0AF02FFB6D49486100204B
:105750006C49487000BF67480068006A20F0A000EC
:1057600064490968086263480068006A6149096819
:10577000086200BF04215F4800F086FE00BF00BF42
:105780000A98007F04287DD15E48807820B10128E6
:105790001ED002281BD13CE0544800685A4988605A
:1057A00000BF54480068006A20F42060514909682D
:1057B000086250480068006A40F400704D4909686A
:1057C000086200BF4F488078401C4E498870B3E0A3
:1057D0004648006844498860084680684A498968A4
:1057E000401A4549886000BF42480068006A20F4BA
:1057F00020604049096808623E480068006A3D49E7
:105800000968086200BF3F488078401C3D498870A5
:1058100092E03548806835490968081A344988603B
:105820000821344800F0F8FE334880683049896820
:10583000084403900AF0F6FCCDE904019DED040B49
:1058400053EC102B1FEDE40B51EC100B0AF092FB04
:105850001FEDE50B53EC102BCDE906019DED060B7A
:1058600051EC100B0AF086FBCDE908019DED080B09
:1058700051EC100B0AF098FA204988611E488068A4
:105880001B4900E059E08968084403900AF0CAFC0B
:10589000CDE906011848806801900AF0C3FC1FEDAD
:1058A000F50B53EC102BCDE902019DED020B51ECF1
:1058B000100B0AF007FDCDE904019DED060B53EC3A
:1058C000102B9DED040B51EC100B0AF053FBCDE9AE
:1058D00008019DED080B51EC100B0AF065FA084920
:1058E00088610020074911E05892002084020020BE
:1058F0003892002044070020289200204891002080
:10590000789100209002002048920020887000BF0B
:10591000FC480068006A20F42060FA4909680862BF
:10592000F8480068006AF7490968086200BF082162
:10593000F44800F0A9FD00BF00BF0A98007F0828C6
:105940007ED1F148C07820B101281ED002281BD199
:105950003CE0EE480068EE49C86000BFE9480068D6
:10596000006A20F42040E74909680862E5480068B9
:10597000006A40F40050E3490968086200BFE24849
:10598000C078401CE049C870A0E0E0480068E149E8
:10599000C8600846C068DE49C968401ADE49C86068
:1059A00000BFD8480068006A20F42040D549096843
:1059B0000862D4480068006AD2490968086200BFDA
:1059C000D148C078401CD049C8707FE0D148C06839
:1059D000CE490968081AD149C8600C21C94800F0AD
:1059E0001BFECD48C068CD49C968084403900AF041
:1059F00019FCCDE904019DED040B53EC102B9FED38
:105A0000C80B51EC100B0AF0B5FA9FEDC70B53EC25
:105A1000102BCDE906019DED060B51EC100B0AF0A1
:105A2000A9FACDE908019DED080B51EC100B0AF025
:105A3000BBF9BF49C861B848C068B849C96800E047
:105A400045E0084403900AF0EDFBCDE90601B248B9
:105A5000C06801900AF0E6FB9FEDB60B53EC102BEB
:105A6000CDE902019DED020B51EC100B0AF02AFC6E
:105A7000CDE904019DED060B53EC102B9DED040BBD
:105A800051EC100B0AF076FACDE908019DED080BF8
:105A900051EC100B0AF088F9A849C86100209A4916
:105AA000C87000BF97480068006A20F420409549FC
:105AB0000968086293480068006A924909680862A8
:105AC00000BF0C218F4800F0DFFC00BF00BF0A9828
:105AD00000689B49096888427ED10A98007F0128A6
